{
  "contractName": "Lending",
  "abi": [
    {
      "inputs": [
        {
          "internalType": "uint256",
          "name": "",
          "type": "uint256"
        }
      ],
      "name": "lenders",
      "outputs": [
        {
          "internalType": "address",
          "name": "",
          "type": "address"
        }
      ],
      "stateMutability": "view",
      "type": "function",
      "constant": true
    },
    {
      "inputs": [
        {
          "internalType": "uint256",
          "name": "",
          "type": "uint256"
        }
      ],
      "name": "titles",
      "outputs": [
        {
          "internalType": "string",
          "name": "",
          "type": "string"
        }
      ],
      "stateMutability": "view",
      "type": "function",
      "constant": true
    },
    {
      "inputs": [
        {
          "internalType": "uint256",
          "name": "bookId",
          "type": "uint256"
        },
        {
          "internalType": "string",
          "name": "title",
          "type": "string"
        }
      ],
      "name": "createBook",
      "outputs": [
        {
          "internalType": "uint256",
          "name": "",
          "type": "uint256"
        }
      ],
      "stateMutability": "nonpayable",
      "type": "function"
    },
    {
      "inputs": [
        {
          "internalType": "uint256",
          "name": "bookId",
          "type": "uint256"
        }
      ],
      "name": "removeBook",
      "outputs": [
        {
          "internalType": "uint256",
          "name": "",
          "type": "uint256"
        }
      ],
      "stateMutability": "nonpayable",
      "type": "function"
    },
    {
      "inputs": [
        {
          "internalType": "uint256",
          "name": "bookId",
          "type": "uint256"
        }
      ],
      "name": "lendBook",
      "outputs": [
        {
          "internalType": "uint256",
          "name": "",
          "type": "uint256"
        }
      ],
      "stateMutability": "nonpayable",
      "type": "function"
    },
    {
      "inputs": [
        {
          "internalType": "uint256",
          "name": "bookId",
          "type": "uint256"
        }
      ],
      "name": "returnBook",
      "outputs": [
        {
          "internalType": "uint256",
          "name": "",
          "type": "uint256"
        }
      ],
      "stateMutability": "nonpayable",
      "type": "function"
    },
    {
      "inputs": [],
      "name": "getLenders",
      "outputs": [
        {
          "internalType": "address[16]",
          "name": "",
          "type": "address[16]"
        }
      ],
      "stateMutability": "view",
      "type": "function",
      "constant": true
    }
  ],
  "bytecode": "0x608060405234801561001057600080fd5b50610c19806100206000396000f3fe608060405234801561001057600080fd5b506004361061007d5760003560e01c8063829268751161005b5780638292687514610112578063929eea2114610130578063bec0d79914610160578063ca5140c9146101905761007d565b80632cda1bf7146100825780634fb9aac2146100b257806374ca79f8146100e2575b600080fd5b61009c60048036038101906100979190610519565b6101c0565b6040516100a991906105d6565b60405180910390f35b6100cc60048036038101906100c79190610519565b610263565b6040516100d99190610607565b60405180910390f35b6100fc60048036038101906100f79190610757565b6102dc565b6040516101099190610607565b60405180910390f35b61011a610325565b6040516101279190610890565b60405180910390f35b61014a60048036038101906101459190610519565b6103a6565b60405161015791906108bb565b60405180910390f35b61017a60048036038101906101759190610519565b6103dc565b6040516101879190610607565b60405180910390f35b6101aa60048036038101906101a59190610519565b610433565b6040516101b79190610607565b60405180910390f35b601081601081106101d057600080fd5b0160009150905080546101e290610905565b80601f016020809104026020016040519081016040528092919081815260200182805461020e90610905565b801561025b5780601f106102305761010080835404028352916020019161025b565b820191906000526020600020905b81548152906001019060200180831161023e57829003601f168201915b505050505081565b6000816000111580156102775750600f8211155b61028057600080fd5b336000836010811061029557610294610936565b5b0160006101000a81548173ffffffffffffffffffffffffffffffffffffffff021916908373ffffffffffffffffffffffffffffffffffffffff160217905550819050919050565b6000826000111580156102f05750600f8311155b6102f957600080fd5b816010846010811061030e5761030d610936565b5b01908161031b9190610b11565b5082905092915050565b61032d6104ac565b600060108060200260405190810160405280929190826010801561039c576020028201915b8160009054906101000a900473ffffffffffffffffffffffffffffffffffffffff1673ffffffffffffffffffffffffffffffffffffffff1681526020019060010190808311610352575b5050505050905090565b600081601081106103b657600080fd5b016000915054906101000a900473ffffffffffffffffffffffffffffffffffffffff1681565b6000816000111580156103f05750600f8211155b6103f957600080fd5b604051806020016040528060008152506010836010811061041d5761041c610936565b5b01908161042a9190610b11565b50819050919050565b6000816000111580156104475750600f8211155b61045057600080fd5b600080836010811061046557610464610936565b5b0160006101000a81548173ffffffffffffffffffffffffffffffffffffffff021916908373ffffffffffffffffffffffffffffffffffffffff160217905550819050919050565b604051806102000160405280601090602082028036833780820191505090505090565b6000604051905090565b600080fd5b600080fd5b6000819050919050565b6104f6816104e3565b811461050157600080fd5b50565b600081359050610513816104ed565b92915050565b60006020828403121561052f5761052e6104d9565b5b600061053d84828501610504565b91505092915050565b600081519050919050565b600082825260208201905092915050565b60005b83811015610580578082015181840152602081019050610565565b60008484015250505050565b6000601f19601f8301169050919050565b60006105a882610546565b6105b28185610551565b93506105c2818560208601610562565b6105cb8161058c565b840191505092915050565b600060208201905081810360008301526105f0818461059d565b905092915050565b610601816104e3565b82525050565b600060208201905061061c60008301846105f8565b92915050565b600080fd5b600080fd5b7f4e487b7100000000000000000000000000000000000000000000000000000000600052604160045260246000fd5b6106648261058c565b810181811067ffffffffffffffff821117156106835761068261062c565b5b80604052505050565b60006106966104cf565b90506106a2828261065b565b919050565b600067ffffffffffffffff8211156106c2576106c161062c565b5b6106cb8261058c565b9050602081019050919050565b82818337600083830152505050565b60006106fa6106f5846106a7565b61068c565b90508281526020810184848401111561071657610715610627565b5b6107218482856106d8565b509392505050565b600082601f83011261073e5761073d610622565b5b813561074e8482602086016106e7565b91505092915050565b6000806040838503121561076e5761076d6104d9565b5b600061077c85828601610504565b925050602083013567ffffffffffffffff81111561079d5761079c6104de565b5b6107a985828601610729565b9150509250929050565b600060109050919050565b600081905092915050565b6000819050919050565b600073ffffffffffffffffffffffffffffffffffffffff82169050919050565b60006107fe826107d3565b9050919050565b61080e816107f3565b82525050565b60006108208383610805565b60208301905092915050565b6000602082019050919050565b610842816107b3565b61084c81846107be565b9250610857826107c9565b8060005b8381101561088857815161086f8782610814565b965061087a8361082c565b92505060018101905061085b565b505050505050565b6000610200820190506108a66000830184610839565b92915050565b6108b5816107f3565b82525050565b60006020820190506108d060008301846108ac565b92915050565b7f4e487b7100000000000000000000000000000000000000000000000000000000600052602260045260246000fd5b6000600282049050600182168061091d57607f821691505b6020821081036109305761092f6108d6565b5b50919050565b7f4e487b7100000000000000000000000000000000000000000000000000000000600052603260045260246000fd5b60008190508160005260206000209050919050565b60006020601f8301049050919050565b600082821b905092915050565b6000600883026109c77fffffffffffffffffffffffffffffffffffffffffffffffffffffffffffffffff8261098a565b6109d1868361098a565b95508019841693508086168417925050509392505050565b6000819050919050565b6000610a0e610a09610a04846104e3565b6109e9565b6104e3565b9050919050565b6000819050919050565b610a28836109f3565b610a3c610a3482610a15565b848454610997565b825550505050565b600090565b610a51610a44565b610a5c818484610a1f565b505050565b5b81811015610a8057610a75600082610a49565b600181019050610a62565b5050565b601f821115610ac557610a9681610965565b610a9f8461097a565b81016020851015610aae578190505b610ac2610aba8561097a565b830182610a61565b50505b505050565b600082821c905092915050565b6000610ae860001984600802610aca565b1980831691505092915050565b6000610b018383610ad7565b9150826002028217905092915050565b610b1a82610546565b67ffffffffffffffff811115610b3357610b3261062c565b5b610b3d8254610905565b610b48828285610a84565b600060209050601f831160018114610b7b5760008415610b69578287015190505b610b738582610af5565b865550610bdb565b601f198416610b8986610965565b60005b82811015610bb157848901518255600182019150602085019450602081019050610b8c565b86831015610bce5784890151610bca601f891682610ad7565b8355505b6001600288020188555050505b50505050505056fea2646970667358221220503e1422276b64e8c83f7cad85c31693c908fe4b1f0322a2347b889406050d6a64736f6c63430008130033",
  "immutableReferences": {},
  "source": "pragma solidity ^0.8.0;\n\ncontract Lending {\n    address[16] public lenders;\n    string[16] public titles;\n    \n    function createBook(uint bookId, string memory title) public returns (uint) {\n        require (0 <= bookId && bookId <= 15);\n        titles[bookId] = title;\n        return bookId;\n    }\n\n    function removeBook(uint bookId) public returns (uint) {\n        require (0 <= bookId && bookId <= 15);\n        titles[bookId] = \"\";\n        return bookId;\n    }\n    function lendBook(uint bookId) public returns (uint) {\n        require (0 <= bookId && bookId <= 15);\n        lenders[bookId] = msg.sender;\n        return bookId;\n    }\n\n    function returnBook(uint bookId) public returns (uint) {\n        require (0 <= bookId && bookId <= 15);\n        lenders[bookId] = address(0);\n        return bookId;\n    }\n\n    function getLenders() public view returns (address[16] memory) {\n        return lenders;\n    }\n}",
  "sourcePath": "/home/lebs/Documents/projet-blockchain/ethereum_project/contracts/Lending.sol",
  "compiler": {
    "name": "solc",
    "version": "0.8.19+commit.7dd6d404.Emscripten.clang"
  },
  "schemaVersion": "3.4.16",
  "updatedAt": "2025-04-06T18:23:27.250Z",
  "networkType": "ethereum",
  "devdoc": {
    "kind": "dev",
    "methods": {},
    "version": 1
  },
  "userdoc": {
    "kind": "user",
    "methods": {},
    "version": 1
  }
}