{
  "contractName": "Voting",
  "abi": [
    {
      "inputs": [
        {
          "internalType": "string",
          "name": "candidate",
          "type": "string"
        }
      ],
      "name": "vote",
      "outputs": [],
      "stateMutability": "nonpayable",
      "type": "function"
    },
    {
      "inputs": [
        {
          "internalType": "string",
          "name": "candidate",
          "type": "string"
        }
      ],
      "name": "getVotes",
      "outputs": [
        {
          "internalType": "uint256",
          "name": "",
          "type": "uint256"
        }
      ],
      "stateMutability": "view",
      "type": "function",
      "constant": true
    }
  ],
  "bytecode": "0x608060405234801561001057600080fd5b506103f1806100206000396000f3fe608060405234801561001057600080fd5b50600436106100365760003560e01c8063805265e51461003b578063fc36e15b1461006b575b600080fd5b6100556004803603810190610050919061023f565b610087565b60405161006291906102a1565b60405180910390f35b6100856004803603810190610080919061023f565b6100ae565b005b60008082604051610098919061032d565b9081526020016040518091039020549050919050565b6000816040516100be919061032d565b908152602001604051809103902060008154809291906100dd90610373565b919050555050565b6000604051905090565b600080fd5b600080fd5b600080fd5b600080fd5b6000601f19601f8301169050919050565b7f4e487b7100000000000000000000000000000000000000000000000000000000600052604160045260246000fd5b61014c82610103565b810181811067ffffffffffffffff8211171561016b5761016a610114565b5b80604052505050565b600061017e6100e5565b905061018a8282610143565b919050565b600067ffffffffffffffff8211156101aa576101a9610114565b5b6101b382610103565b9050602081019050919050565b82818337600083830152505050565b60006101e26101dd8461018f565b610174565b9050828152602081018484840111156101fe576101fd6100fe565b5b6102098482856101c0565b509392505050565b600082601f830112610226576102256100f9565b5b81356102368482602086016101cf565b91505092915050565b600060208284031215610255576102546100ef565b5b600082013567ffffffffffffffff811115610273576102726100f4565b5b61027f84828501610211565b91505092915050565b6000819050919050565b61029b81610288565b82525050565b60006020820190506102b66000830184610292565b92915050565b600081519050919050565b600081905092915050565b60005b838110156102f05780820151818401526020810190506102d5565b60008484015250505050565b6000610307826102bc565b61031181856102c7565b93506103218185602086016102d2565b80840191505092915050565b600061033982846102fc565b915081905092915050565b7f4e487b7100000000000000000000000000000000000000000000000000000000600052601160045260246000fd5b600061037e82610288565b91507fffffffffffffffffffffffffffffffffffffffffffffffffffffffffffffffff82036103b0576103af610344565b5b60018201905091905056fea2646970667358221220a0571ddf2873d4d9651ddd87c0e1826e087d8620fd69a162591d7f4ba28e4dde64736f6c63430008130033",
  "immutableReferences": {},
  "source": "// SPDX-License-Identifier: MIT\npragma solidity ^0.8.0;\ncontract Voting {\n    mapping(string => uint) votes;\n    function vote(string memory candidate) public {\n        votes[candidate]++;\n    }\n    function getVotes(string memory candidate) public view returns (uint) {\n        return votes[candidate];\n    }\n}",
  "sourcePath": "/home/lebs/Documents/projet-blockchain/ethereum_project/contracts/Voting.sol",
  "compiler": {
    "name": "solc",
    "version": "0.8.19+commit.7dd6d404.Emscripten.clang"
  },
  "schemaVersion": "3.4.16",
  "updatedAt": "2025-03-27T22:57:03.217Z",
  "networkType": "ethereum",
  "devdoc": {
    "kind": "dev",
    "methods": {},
    "version": 1
  },
  "userdoc": {
    "kind": "user",
    "methods": {},
    "version": 1
  }
}